{
  "transactions": [
    {
      "hash": "0x914302a5f7858cb91d29fabcf17cce2348f4965ea22b424762ac857aa68b8428",
      "transactionType": "CALL",
      "contractName": null,
      "contractAddress": "0x27f2b5ed932ebf3223f53e29c4efd3c411d35d18",
      "function": "mintNft(string)",
      "arguments": [
        "ipfs://bafybeig37ioir76s7mg5oobetncojcm3c3hxasyd4rvid4jqhy4gkaheg4"
      ],
      "transaction": {
        "from": "0xaa069e220e811a8f0e2926c86cc45e6db1510946",
        "to": "0x27f2b5ed932ebf3223f53e29c4efd3c411d35d18",
        "gas": "0x34fb4",
        "value": "0x0",
        "input": "0xda86f4a900000000000000000000000000000000000000000000000000000000000000200000000000000000000000000000000000000000000000000000000000000042697066733a2f2f62616679626569673337696f6972373673376d67356f6f6265746e636f6a636d3363336878617379643472766964346a71687934676b6168656734000000000000000000000000000000000000000000000000000000000000",
        "nonce": "0x2",
        "chainId": "0xaa36a7"
      },
      "additionalContracts": [],
      "isFixedGasLimit": false
    }
  ],
  "receipts": [
    {
      "status": "0x1",
      "cumulativeGasUsed": "0xff9cc7",
      "logs": [
        {
          "address": "0x27f2b5ed932ebf3223f53e29c4efd3c411d35d18",
          "topics": [
            "0xddf252ad1be2c89b69c2b068fc378daa952ba7f163c4a11628f55a4df523b3ef",
            "0x0000000000000000000000000000000000000000000000000000000000000000",
            "0x000000000000000000000000aa069e220e811a8f0e2926c86cc45e6db1510946",
            "0x0000000000000000000000000000000000000000000000000000000000000001"
          ],
          "data": "0x",
          "blockHash": "0x83c458608938cbbb082cca251c3e4d7762b2e884f317056709b7e40c18846a86",
          "blockNumber": "0xa1128a",
          "blockTimestamp": "0x69cae420",
          "transactionHash": "0x914302a5f7858cb91d29fabcf17cce2348f4965ea22b424762ac857aa68b8428",
          "transactionIndex": "0x6a",
          "logIndex": "0x1b6",
          "removed": false
        }
      ],
      "logsBloom": "0x00000000000000000000000000000000000000000000000000000000000000000000000000000000000000000000000000000000000000000000000000040000000000000000000000000008000000000000000000040000000000040002000000000000020000000000000000000800000000000000000000020010000000000000000000000000000000000000000000000000000000000000000000000000000000000000000010000000000000000000000000000000000000000000000000000002000000000000000000000080000000000000000000000000000060000000000000000000000000000000000000000000000000000000000000000000",
      "type": "0x2",
      "transactionHash": "0x914302a5f7858cb91d29fabcf17cce2348f4965ea22b424762ac857aa68b8428",
      "transactionIndex": "0x6a",
      "blockHash": "0x83c458608938cbbb082cca251c3e4d7762b2e884f317056709b7e40c18846a86",
      "blockNumber": "0xa1128a",
      "gasUsed": "0x243a1",
      "effectiveGasPrice": "0xf424a",
      "from": "0xaa069e220e811a8f0e2926c86cc45e6db1510946",
      "to": "0x27f2b5ed932ebf3223f53e29c4efd3c411d35d18",
      "contractAddress": null
    }
  ],
  "libraries": [],
  "pending": [],
  "returns": {},
  "timestamp": 1774904353115,
  "chain": 11155111,
  "commit": null
}