{
  "transactions": [
    {
      "hash": "0x84adf3750d128db39872cde007ed61447a22f7a11d2a8a2ab7062b4dae165f22",
      "transactionType": "CALL",
      "contractName": null,
      "contractAddress": "0x27f2b5ed932ebf3223f53e29c4efd3c411d35d18",
      "function": "mintNft(string)",
      "arguments": [
        "ipfs://bafybeig37ioir76s7mg5oobetncojcm3c3hxasyd4rvid4jqhy4gkaheg4/?filename=0-PUG.json"
      ],
      "transaction": {
        "from": "0xaa069e220e811a8f0e2926c86cc45e6db1510946",
        "to": "0x27f2b5ed932ebf3223f53e29c4efd3c411d35d18",
        "gas": "0x3da7f",
        "value": "0x0",
        "input": "0xda86f4a900000000000000000000000000000000000000000000000000000000000000200000000000000000000000000000000000000000000000000000000000000057697066733a2f2f62616679626569673337696f6972373673376d67356f6f6265746e636f6a636d3363336878617379643472766964346a71687934676b61686567342f3f66696c656e616d653d302d5055472e6a736f6e000000000000000000",
        "nonce": "0x1",
        "chainId": "0xaa36a7"
      },
      "additionalContracts": [],
      "isFixedGasLimit": false
    }
  ],
  "receipts": [
    {
      "status": "0x1",
      "cumulativeGasUsed": "0xc34035",
      "logs": [
        {
          "address": "0x27f2b5ed932ebf3223f53e29c4efd3c411d35d18",
          "topics": [
            "0xddf252ad1be2c89b69c2b068fc378daa952ba7f163c4a11628f55a4df523b3ef",
            "0x0000000000000000000000000000000000000000000000000000000000000000",
            "0x000000000000000000000000aa069e220e811a8f0e2926c86cc45e6db1510946",
            "0x0000000000000000000000000000000000000000000000000000000000000000"
          ],
          "data": "0x",
          "blockHash": "0x5379d11a997c9f8b3b3c8db9cef59d3f95ebd9651070f4db2184e985a37ae70c",
          "blockNumber": "0xa11256",
          "blockTimestamp": "0x69cae198",
          "transactionHash": "0x84adf3750d128db39872cde007ed61447a22f7a11d2a8a2ab7062b4dae165f22",
          "transactionIndex": "0x43",
          "logIndex": "0x277",
          "removed": false
        }
      ],
      "logsBloom": "0x00000000000000000000000000000000000000000000000000000000000000000000000000000000000000000000000000000000000000000000000000000000000000000000000000000008000000000000000000000000000000040002000000000000020000000000000000000800000000000000000000020010000000000000000000000000000000000000000000000000000000000000000000000000000000000000000010000000000000000000000000000000000000000000000000000002000000000000000000000080000000000000000000000000000020000000000000000000000000000000000000000000000000000000000000000000",
      "type": "0x2",
      "transactionHash": "0x84adf3750d128db39872cde007ed61447a22f7a11d2a8a2ab7062b4dae165f22",
      "transactionIndex": "0x43",
      "blockHash": "0x5379d11a997c9f8b3b3c8db9cef59d3f95ebd9651070f4db2184e985a37ae70c",
      "blockNumber": "0xa11256",
      "gasUsed": "0x2ca35",
      "effectiveGasPrice": "0xf424a",
      "from": "0xaa069e220e811a8f0e2926c86cc45e6db1510946",
      "to": "0x27f2b5ed932ebf3223f53e29c4efd3c411d35d18",
      "contractAddress": null
    }
  ],
  "libraries": [],
  "pending": [],
  "returns": {},
  "timestamp": 1774903705355,
  "chain": 11155111,
  "commit": null
}